:040000005DEF01F0BF
:08000800046ED8CF05F0E0CF33
:1000100006F00001E9CF0CF0EACF07F0E1CF08F0DD
:10002000E2CF09F0D9CF0AF0DACF0BF0F3CF12F01C
:10003000F4CF13F0FACF14F0F5CF15F0F6CF16F099
:10004000F7CF17F000C00EF001C00FF002C010F0A3
:1000500003C011F09DAA30EF00F09EBA7BEF00F0D4
:100060000EC000F00FC001F010C002F011C003F08C
:100070000CC0E9FF07C0EAFF078E08C0E1FF09C016
:10008000E2FF0AC0D9FF0BC0DAFF12C0F3FF13C0B2
:10009000F4FF14C0FAFF15C0F5FF16C0F6FF17C035
:1000A000F7FF045006C0E0FF05C0D8FF1000948E93
:1000B00082BEFED7080E006E356A008E0ED0009EFE
:1000C0000CD0D89082BED8803532008C06D0009CEF
:1000D000002EF7D735C001F00CD0A70E00BE2D0EB4
:1000E000016E012EFED7000000BEE9D700BCEFD79D
:1000F000E8D787EF00F0036A1F501B0FE96E000E70
:100100000320EA6EEACF34F0E9CF33F0D0D734C021
:10011000EAFF33C0E9FF01C0EFFF1B50210809E1EE
:100120001E5207E11F2A1F50030803E21F6A010E37
:100130001E6E9E9A30EF00F0EA6A290EE96EEF50CB
:100140000DE0060E016E006A002EFED7012EFBD7D1
:100150007B0E006E002EFED7EF2EF3D712002F502D
:10016000016A2E5C03E22EC000F00CD0006A080E7B
:10017000306E2E3600362F50005CD8B0006E01363F
:10018000302EF7D71200296A2850090805E32850B5
:10019000100DF3CF29F017D028C021F021C02EF088
:1001A0000A0E2F6EDCDF00C021F028C020F020C036
:1001B0002EF00A0E2F6ED3DF01C020F02150100D5B
:1001C000F3502024296E29C001F0C6EF01F0949C61
:1001D0008B9C080E016E00D00000018E0ED0019E97
:1001E0002E32D8B08B8CD8A08B9C018C06D0019C71
:1001F000012EF6D700D000008B8CA70EE96EE92EF9
:10020000FED700D001BEEBD701BCF1D71200200E03
:1002100029A8300E2A6E28C000F028AE08D0001E93
:10022000002A00C028F02D0E2A6E298E2980015048
:1002300028C02EF0640E2F6E92DF00C028F0300E22
:1002400001242B6E28C02EF00A0E2F6E88DF300E90
:1002500000242D6E300E01242C6E2AC000F0300ECA
:100260002B5C04E0298229BE298412D02AC02BF0FD
:10027000200E2A6E300E2C5C04E0298029BE2982D3
:1002800007D0D8A4298004E12BC02CF0200E2B6EBF
:1002900029B405D029B206D029B007D009D02AC088
:1002A0002EF095DF2BC02EF092DF2CC02EF08FDFCA
:1002B0002DC02EF08CDFE0EF01F0F86AD09E078EA3
:1002C000949C8B8C1E6A1F6A22902292236AC180A2
:1002D000C182C184C196070EB46E196A1A6A246A73
:1002E000030E256E9D8AC00EF212D26A800ED56E64
:1002F000C180C182C184C196C290C66AD190850E68
:10030000CD6E070EB46E9550956E9650966E100E8B
:10031000006E002EFED70000B450A19CB56AD36ACF
:1003200096948D8496928D92000E016EC250C70BEA
:100330000110C26E948082B00ED0948282A20BD043
:100340002282010E2426040E286EFA0E296EF4DE97
:10035000282EFBD712D0948082A00FD0948282B234
:100360000CD024520AE02282010E245E040E286E74
:10037000FA0E296EE1DE282EFBD71E5202E01CC0C9
:1003800025F022A21ED024C028F0FDD601C026F000
:10039000936A26C08AFF27902550245C01E32780BA
:1003A00027A005D096928D7296948D9404D0969243
:1003B0008D9296948D8424C028F0180E296E27D72C
:0C03C0002292C80E296EB8DEAFD70300F1
:020000040030CA
:0E00000000220E0E000081000FC00FE00F4026
:00000001FF
;PIC18F458
;CRC=5CFE  CREATED="17-mai-21 09:52"
